{
  "address": "0x5619880F9957908d17fc5A1406Bcc39818ca23A1",
  "abi": [
    {
      "anonymous": false,
      "inputs": [
        {
          "indexed": true,
          "internalType": "address",
          "name": "sender",
          "type": "address"
        },
        {
          "indexed": false,
          "internalType": "address",
          "name": "owner",
          "type": "address"
        },
        {
          "indexed": true,
          "internalType": "string",
          "name": "name",
          "type": "string"
        },
        {
          "indexed": true,
          "internalType": "string",
          "name": "aliasName",
          "type": "string"
        },
        {
          "indexed": false,
          "internalType": "uint256",
          "name": "amount",
          "type": "uint256"
        },
        {
          "indexed": false,
          "internalType": "uint256",
          "name": "paidAt",
          "type": "uint256"
        }
      ],
      "name": "DonationSent",
      "type": "event"
    },
    {
      "anonymous": false,
      "inputs": [
        {
          "indexed": false,
          "internalType": "uint8",
          "name": "version",
          "type": "uint8"
        }
      ],
      "name": "Initialized",
      "type": "event"
    },
    {
      "anonymous": false,
      "inputs": [
        {
          "indexed": true,
          "internalType": "address",
          "name": "from",
          "type": "address"
        },
        {
          "indexed": true,
          "internalType": "address",
          "name": "to",
          "type": "address"
        }
      ],
      "name": "MaintainerChanged",
      "type": "event"
    },
    {
      "anonymous": false,
      "inputs": [
        {
          "indexed": false,
          "internalType": "uint256",
          "name": "from",
          "type": "uint256"
        },
        {
          "indexed": false,
          "internalType": "uint256",
          "name": "to",
          "type": "uint256"
        }
      ],
      "name": "OwnerRevDisPercentChanged",
      "type": "event"
    },
    {
      "anonymous": false,
      "inputs": [
        {
          "indexed": true,
          "internalType": "address",
          "name": "previousOwner",
          "type": "address"
        },
        {
          "indexed": true,
          "internalType": "address",
          "name": "newOwner",
          "type": "address"
        }
      ],
      "name": "OwnershipTransferred",
      "type": "event"
    },
    {
      "anonymous": false,
      "inputs": [
        {
          "indexed": false,
          "internalType": "address",
          "name": "account",
          "type": "address"
        }
      ],
      "name": "Paused",
      "type": "event"
    },
    {
      "anonymous": false,
      "inputs": [
        {
          "indexed": false,
          "internalType": "address",
          "name": "account",
          "type": "address"
        }
      ],
      "name": "Unpaused",
      "type": "event"
    },
    {
      "anonymous": false,
      "inputs": [
        {
          "indexed": true,
          "internalType": "address",
          "name": "user",
          "type": "address"
        },
        {
          "indexed": false,
          "internalType": "address",
          "name": "owner",
          "type": "address"
        },
        {
          "indexed": true,
          "internalType": "string",
          "name": "name",
          "type": "string"
        },
        {
          "indexed": true,
          "internalType": "string",
          "name": "aliasName",
          "type": "string"
        },
        {
          "indexed": false,
          "internalType": "uint256",
          "name": "price",
          "type": "uint256"
        },
        {
          "indexed": false,
          "internalType": "uint256",
          "name": "paidAt",
          "type": "uint256"
        }
      ],
      "name": "UserPaidForVanityURL",
      "type": "event"
    },
    {
      "anonymous": false,
      "inputs": [
        {
          "indexed": true,
          "internalType": "address",
          "name": "from",
          "type": "address"
        },
        {
          "indexed": true,
          "internalType": "address",
          "name": "to",
          "type": "address"
        }
      ],
      "name": "VanityURLAddressChanged",
      "type": "event"
    },
    {
      "inputs": [],
      "name": "BASIS_POINT",
      "outputs": [
        {
          "internalType": "uint256",
          "name": "",
          "type": "uint256"
        }
      ],
      "stateMutability": "view",
      "type": "function"
    },
    {
      "inputs": [
        {
          "internalType": "address",
          "name": "_user",
          "type": "address"
        },
        {
          "internalType": "string",
          "name": "_name",
          "type": "string"
        },
        {
          "internalType": "string",
          "name": "_aliasName",
          "type": "string"
        }
      ],
      "name": "checkVanityURLAccess",
      "outputs": [
        {
          "internalType": "bool",
          "name": "",
          "type": "bool"
        }
      ],
      "stateMutability": "view",
      "type": "function"
    },
    {
      "inputs": [
        {
          "internalType": "address",
          "name": "_vanityURLAddress",
          "type": "address"
        },
        {
          "internalType": "address",
          "name": "_maintainer",
          "type": "address"
        }
      ],
      "name": "initialize",
      "outputs": [],
      "stateMutability": "nonpayable",
      "type": "function"
    },
    {
      "inputs": [],
      "name": "maintainer",
      "outputs": [
        {
          "internalType": "address",
          "name": "",
          "type": "address"
        }
      ],
      "stateMutability": "view",
      "type": "function"
    },
    {
      "inputs": [],
      "name": "owner",
      "outputs": [
        {
          "internalType": "address",
          "name": "",
          "type": "address"
        }
      ],
      "stateMutability": "view",
      "type": "function"
    },
    {
      "inputs": [],
      "name": "ownerRevDisPercent",
      "outputs": [
        {
          "internalType": "uint256",
          "name": "",
          "type": "uint256"
        }
      ],
      "stateMutability": "view",
      "type": "function"
    },
    {
      "inputs": [],
      "name": "paused",
      "outputs": [
        {
          "internalType": "bool",
          "name": "",
          "type": "bool"
        }
      ],
      "stateMutability": "view",
      "type": "function"
    },
    {
      "inputs": [
        {
          "internalType": "string",
          "name": "_name",
          "type": "string"
        },
        {
          "internalType": "string",
          "name": "_aliasName",
          "type": "string"
        }
      ],
      "name": "payForVanityURLAccess",
      "outputs": [],
      "stateMutability": "payable",
      "type": "function"
    },
    {
      "inputs": [
        {
          "internalType": "address",
          "name": "_user",
          "type": "address"
        },
        {
          "internalType": "string",
          "name": "_name",
          "type": "string"
        },
        {
          "internalType": "string",
          "name": "_aliasName",
          "type": "string"
        },
        {
          "internalType": "uint256",
          "name": "_paidAt",
          "type": "uint256"
        }
      ],
      "name": "payForVanityURLAccessFor",
      "outputs": [],
      "stateMutability": "payable",
      "type": "function"
    },
    {
      "inputs": [],
      "name": "renounceOwnership",
      "outputs": [],
      "stateMutability": "nonpayable",
      "type": "function"
    },
    {
      "inputs": [
        {
          "internalType": "string",
          "name": "_name",
          "type": "string"
        },
        {
          "internalType": "string",
          "name": "_aliasName",
          "type": "string"
        }
      ],
      "name": "sendDonation",
      "outputs": [],
      "stateMutability": "payable",
      "type": "function"
    },
    {
      "inputs": [
        {
          "internalType": "address",
          "name": "_user",
          "type": "address"
        },
        {
          "internalType": "string",
          "name": "_name",
          "type": "string"
        },
        {
          "internalType": "string",
          "name": "_aliasName",
          "type": "string"
        }
      ],
      "name": "sendDonationFor",
      "outputs": [],
      "stateMutability": "payable",
      "type": "function"
    },
    {
      "inputs": [
        {
          "internalType": "address",
          "name": "newOwner",
          "type": "address"
        }
      ],
      "name": "transferOwnership",
      "outputs": [],
      "stateMutability": "nonpayable",
      "type": "function"
    },
    {
      "inputs": [
        {
          "internalType": "address",
          "name": "_maintainer",
          "type": "address"
        }
      ],
      "name": "updateMaintainer",
      "outputs": [],
      "stateMutability": "nonpayable",
      "type": "function"
    },
    {
      "inputs": [
        {
          "internalType": "uint256",
          "name": "_ownerRevDisPercent",
          "type": "uint256"
        }
      ],
      "name": "updateOwnerRevDisPercent",
      "outputs": [],
      "stateMutability": "nonpayable",
      "type": "function"
    },
    {
      "inputs": [
        {
          "internalType": "address",
          "name": "_vanityURLAddress",
          "type": "address"
        }
      ],
      "name": "updateVanityURLAddress",
      "outputs": [],
      "stateMutability": "nonpayable",
      "type": "function"
    },
    {
      "inputs": [],
      "name": "vanityURLAddress",
      "outputs": [
        {
          "internalType": "contract IVanityURL",
          "name": "",
          "type": "address"
        }
      ],
      "stateMutability": "view",
      "type": "function"
    },
    {
      "inputs": [
        {
          "internalType": "bytes32",
          "name": "",
          "type": "bytes32"
        },
        {
          "internalType": "string",
          "name": "",
          "type": "string"
        },
        {
          "internalType": "address",
          "name": "",
          "type": "address"
        }
      ],
      "name": "vanityURLPaidAt",
      "outputs": [
        {
          "internalType": "uint256",
          "name": "",
          "type": "uint256"
        }
      ],
      "stateMutability": "view",
      "type": "function"
    },
    {
      "inputs": [],
      "name": "withdraw",
      "outputs": [],
      "stateMutability": "nonpayable",
      "type": "function"
    }
  ],
  "transactionHash": "0x73840801acb44c6372158d74f4ad09d254d75f62a410dd25ed8266c3fb73c80b",
  "args": [],
  "numDeployments": 3,
  "solcInputHash": "42cefec83d227c1fe85e271ab32829e5",
  "bytecode": "0x608060405234801561001057600080fd5b50611773806100206000396000f3fe6080604052600436106101145760003560e01c80639850d32b116100a0578063c6e628e311610064578063c6e628e3146102ec578063c7cf45901461030c578063d770430c1461031f578063f2fde38b1461033f578063f96a4a291461035f57600080fd5b80639850d32b146102265780639b6711d414610246578063ada5f642146102a3578063b19e1121146102b9578063bfe4db0d146102cc57600080fd5b80635c975abb116100e75780635c975abb14610183578063715018a6146101ac5780638360dda7146101c1578063862c9bd2146101d45780638da5cb5b146101f457600080fd5b80633456eb10146101195780633b320a5c1461012e5780633ccfd60b1461014e578063485cc95514610163575b600080fd5b61012c6101273660046111c3565b610375565b005b34801561013a57600080fd5b5061012c61014936600461124e565b61041c565b34801561015a57600080fd5b5061012c6104a7565b34801561016f57600080fd5b5061012c61017e366004611267565b61053f565b34801561018f57600080fd5b5060655460ff165b60405190151581526020015b60405180910390f35b3480156101b857600080fd5b5061012c610692565b61012c6101cf366004611343565b6106a6565b3480156101e057600080fd5b506101976101ef3660046113a7565b6106b6565b34801561020057600080fd5b506033546001600160a01b03165b6040516001600160a01b0390911681526020016101a3565b34801561023257600080fd5b5060cb5461020e906001600160a01b031681565b34801561025257600080fd5b5061029561026136600461141d565b60ca602090815260009384526040808520845180860184018051928152908401958401959095209452929052825290205481565b6040519081526020016101a3565b3480156102af57600080fd5b5061029561271081565b61012c6102c7366004611478565b610781565b3480156102d857600080fd5b5060c95461020e906001600160a01b031681565b3480156102f857600080fd5b5061012c6103073660046114e4565b610796565b61012c61031a3660046113a7565b6107fa565b34801561032b57600080fd5b5061012c61033a3660046114e4565b610852565b34801561034b57600080fd5b5061012c61035a3660046114e4565b6108b6565b34801561036b57600080fd5b5061029560cc5481565b60cb546001600160a01b031633146103c65760405162461bcd60e51b815260206004820152600f60248201526e37b7363c9036b0b4b73a30b4b732b960891b60448201526064015b60405180910390fd5b428111156104055760405162461bcd60e51b815260206004820152600c60248201526b696e76616c69642074696d6560a01b60448201526064016103bd565b6104148686868686348761092c565b505050505050565b610424610d5d565b6127108111156104665760405162461bcd60e51b815260206004820152600d60248201526c6578636565646564203130302560981b60448201526064016103bd565b60cc5460408051918252602082018390527fbab7df6149fe60fe8722689795962addd29dd4f71a980881ebcdb59e976c7e7c910160405180910390a160cc55565b6104af610d5d565b604051600090339047908381818185875af1925050503d80600081146104f1576040519150601f19603f3d011682016040523d82523d6000602084013e6104f6565b606091505b505090508061053c5760405162461bcd60e51b81526020600482015260126024820152716661696c656420746f20776974686472617760701b60448201526064016103bd565b50565b600054610100900460ff161580801561055f5750600054600160ff909116105b806105795750303b158015610579575060005460ff166001145b6105dc5760405162461bcd60e51b815260206004820152602e60248201527f496e697469616c697a61626c653a20636f6e747261637420697320616c72656160448201526d191e481a5b9a5d1a585b1a5e995960921b60648201526084016103bd565b6000805460ff1916600117905580156105ff576000805461ff0019166101001790555b610607610db7565b61060f610de6565b610617610e15565b60c980546001600160a01b038086166001600160a01b03199283161790925560cb805492851692909116919091179055801561068d576000805461ff0019169055604051600181527f7f26b83ff96e1f2b6a682f133852f6798a09c465da95921460cefb38474024989060200160405180910390a15b505050565b61069a610d5d565b6106a46000610e44565b565b6106b233838334610e96565b5050565b8151602080840191909120600081815260ca909252604080832090516106dd90859061152c565b90815260408051602092819003830181206001600160a01b03898116600090815291909452919091205460c95463f1558de760e01b8352600483018590529092169063f1558de790602401602060405180830381865afa158015610745573d6000803e3d6000fd5b505050506040513d601f19601f820116820180604052508101906107699190611548565b10610775576000610778565b60015b95945050505050565b6107903385858585344261092c565b50505050565b61079e610d5d565b60cb546040516001600160a01b038084169216907f408b3d3ce7697644a506287f6aad98db9fc5a94d99e09bdda27161f80ebd789790600090a360cb80546001600160a01b0319166001600160a01b0392909216919091179055565b60cb546001600160a01b031633146108465760405162461bcd60e51b815260206004820152600f60248201526e37b7363c9036b0b4b73a30b4b732b960891b60448201526064016103bd565b61068d83838334610e96565b61085a610d5d565b60c9546040516001600160a01b038084169216907fc5ca9d91a57bd7cc794c44cd3332b122d8d159eef6310e39336324706815190b90600090a360c980546001600160a01b0319166001600160a01b0392909216919091179055565b6108be610d5d565b6001600160a01b0381166109235760405162461bcd60e51b815260206004820152602660248201527f4f776e61626c653a206e6577206f776e657220697320746865207a65726f206160448201526564647265737360d01b60648201526084016103bd565b61053c81610e44565b6000868660405161093e929190611561565b604051809103902090506109bc8888888080601f01602080910402602001604051908101604052809392919081815260200183838082843760009201919091525050604080516020601f8c018190048102820181019092528a815292508a91508990819084018382808284376000920191909152506106b692505050565b156109f85760405162461bcd60e51b815260206004820152600c60248201526b185b1c9958591e481c185a5960a21b60448201526064016103bd565b60c95460405163d6c5b8c960e01b81526001600160a01b039091169063d6c5b8c990610a2e908a908a908a908a9060040161159a565b602060405180830381865afa158015610a4b573d6000803e3d6000fd5b505050506040513d601f19601f82011682018060405250810190610a6f91906115cc565b610aa95760405162461bcd60e51b815260206004820152600b60248201526a1a5b9d985b1a590815549360aa1b60448201526064016103bd565b60c95460405163316ea8a760e11b815284916001600160a01b0316906362dd514e90610add9085908a908a906004016115ee565b602060405180830381865afa158015610afa573d6000803e3d6000fd5b505050506040513d601f19601f82011682018060405250810190610b1e9190611548565b14610b625760405162461bcd60e51b81526020600482015260146024820152731ddc9bdb99c81c185e5b595b9d08185b5bdd5b9d60621b60448201526064016103bd565b8160ca60008381526020019081526020016000208686604051610b86929190611561565b9081526040805191829003602090810183206001600160a01b03808e166000908152919092529182209390935560c9546327b972f960e01b8352909216906327b972f990610bda908b908b90600401611608565b602060405180830381865afa158015610bf7573d6000803e3d6000fd5b505050506040513d601f19601f82011682018060405250810190610c1b9190611624565b9050600061271060cc5486610c309190611641565b610c3a919061166c565b90506000826001600160a01b03168260405160006040518083038185875af1925050503d8060008114610c89576040519150601f19603f3d011682016040523d82523d6000602084013e610c8e565b606091505b5050905080610cd55760405162461bcd60e51b815260206004820152601360248201527232b93937b91039b2b73234b7339032ba3432b960691b60448201526064016103bd565b8787604051610ce5929190611561565b60405180910390208a8a604051610cfd929190611561565b604080519182900382206001600160a01b0387168352602083018690529082018890529033907f5abc9a65105d255ff43573bdacb3cb2e7470d82206d4e593cfdc0a77a7f03c949060600160405180910390a45050505050505050505050565b6033546001600160a01b031633146106a45760405162461bcd60e51b815260206004820181905260248201527f4f776e61626c653a2063616c6c6572206973206e6f7420746865206f776e657260448201526064016103bd565b600054610100900460ff16610dde5760405162461bcd60e51b81526004016103bd9061168e565b6106a46110d4565b600054610100900460ff16610e0d5760405162461bcd60e51b81526004016103bd9061168e565b6106a4611107565b600054610100900460ff16610e3c5760405162461bcd60e51b81526004016103bd9061168e565b6106a4611137565b603380546001600160a01b038381166001600160a01b0319831681179093556040519116919082907f8be0079c531659141344cd1fd0a4f28419497f9722a3daafe3b4186f6b6457e090600090a35050565b60c95460405163d6c5b8c960e01b81526001600160a01b039091169063d6c5b8c990610ec89086908690600401611705565b602060405180830381865afa158015610ee5573d6000803e3d6000fd5b505050506040513d601f19601f82011682018060405250810190610f0991906115cc565b610f435760405162461bcd60e51b815260206004820152600b60248201526a1a5b9d985b1a590815549360aa1b60448201526064016103bd565b60c9546040516327b972f960e01b81526000916001600160a01b0316906327b972f990610f7490879060040161172a565b602060405180830381865afa158015610f91573d6000803e3d6000fd5b505050506040513d601f19601f82011682018060405250810190610fb59190611624565b60405190915082906000906001600160a01b0384169083908381818185875af1925050503d8060008114611005576040519150601f19603f3d011682016040523d82523d6000602084013e61100a565b606091505b50509050806110515760405162461bcd60e51b815260206004820152601360248201527232b93937b91039b2b73234b7339032ba3432b960691b60448201526064016103bd565b8460405161105f919061152c565b604051809103902086604051611075919061152c565b604080519182900382206001600160a01b03878116845260208401899052428484015291519092918b16917f068706a5e45e2544f6f9aaf5d3d735e2397d941a9063101fb04e091dd5d04f90919081900360600190a450505050505050565b600054610100900460ff166110fb5760405162461bcd60e51b81526004016103bd9061168e565b6065805460ff19169055565b600054610100900460ff1661112e5760405162461bcd60e51b81526004016103bd9061168e565b6106a433610e44565b600054610100900460ff1661115e5760405162461bcd60e51b81526004016103bd9061168e565b6001609755565b6001600160a01b038116811461053c57600080fd5b60008083601f84011261118c57600080fd5b50813567ffffffffffffffff8111156111a457600080fd5b6020830191508360208285010111156111bc57600080fd5b9250929050565b600080600080600080608087890312156111dc57600080fd5b86356111e781611165565b9550602087013567ffffffffffffffff8082111561120457600080fd5b6112108a838b0161117a565b9097509550604089013591508082111561122957600080fd5b5061123689828a0161117a565b979a9699509497949695606090950135949350505050565b60006020828403121561126057600080fd5b5035919050565b6000806040838503121561127a57600080fd5b823561128581611165565b9150602083013561129581611165565b809150509250929050565b634e487b7160e01b600052604160045260246000fd5b600082601f8301126112c757600080fd5b813567ffffffffffffffff808211156112e2576112e26112a0565b604051601f8301601f19908116603f0116810190828211818310171561130a5761130a6112a0565b8160405283815286602085880101111561132357600080fd5b836020870160208301376000602085830101528094505050505092915050565b6000806040838503121561135657600080fd5b823567ffffffffffffffff8082111561136e57600080fd5b61137a868387016112b6565b9350602085013591508082111561139057600080fd5b5061139d858286016112b6565b9150509250929050565b6000806000606084860312156113bc57600080fd5b83356113c781611165565b9250602084013567ffffffffffffffff808211156113e457600080fd5b6113f0878388016112b6565b9350604086013591508082111561140657600080fd5b50611413868287016112b6565b9150509250925092565b60008060006060848603121561143257600080fd5b83359250602084013567ffffffffffffffff81111561145057600080fd5b61145c868287016112b6565b925050604084013561146d81611165565b809150509250925092565b6000806000806040858703121561148e57600080fd5b843567ffffffffffffffff808211156114a657600080fd5b6114b28883890161117a565b909650945060208701359150808211156114cb57600080fd5b506114d88782880161117a565b95989497509550505050565b6000602082840312156114f657600080fd5b813561150181611165565b9392505050565b60005b8381101561152357818101518382015260200161150b565b50506000910152565b6000825161153e818460208701611508565b9190910192915050565b60006020828403121561155a57600080fd5b5051919050565b8183823760009101908152919050565b81835281816020850137506000828201602090810191909152601f909101601f19169091010190565b6040815260006115ae604083018688611571565b82810360208401526115c1818587611571565b979650505050505050565b6000602082840312156115de57600080fd5b8151801515811461150157600080fd5b838152604060208201526000610778604083018486611571565b60208152600061161c602083018486611571565b949350505050565b60006020828403121561163657600080fd5b815161150181611165565b808202811582820484141761166657634e487b7160e01b600052601160045260246000fd5b92915050565b60008261168957634e487b7160e01b600052601260045260246000fd5b500490565b6020808252602b908201527f496e697469616c697a61626c653a20636f6e7472616374206973206e6f74206960408201526a6e697469616c697a696e6760a81b606082015260800190565b600081518084526116f1816020860160208601611508565b601f01601f19169290920160200192915050565b60408152600061171860408301856116d9565b828103602084015261077881856116d9565b60208152600061150160208301846116d956fea2646970667358221220287b4af9ad05713d3beaa221ff887abd8663ba2fe6188d1c1c94157e33bbb33c64736f6c63430008110033",
  "devdoc": {
    "kind": "dev",
    "methods": {
      "owner()": {
        "details": "Returns the address of the current owner."
      },
      "paused()": {
        "details": "Returns true if the contract is paused, and false otherwise."
      },
      "renounceOwnership()": {
        "details": "Leaves the contract without owner. It will not be possible to call `onlyOwner` functions anymore. Can only be called by the current owner. NOTE: Renouncing ownership will leave the contract without an owner, thereby removing any functionality that is only available to the owner."
      },
      "transferOwnership(address)": {
        "details": "Transfers ownership of the contract to a new account (`newOwner`). Can only be called by the current owner."
      }
    },
    "stateVariables": {
      "BASIS_POINT": {
        "details": "Basis point for the percent"
      },
      "maintainer": {
        "details": "Maintainer address"
      },
      "ownerRevDisPercent": {
        "details": "Revenue distribution percent for the name owner"
      },
      "vanityURLAddress": {
        "details": "VanityURL contract address"
      },
      "vanityURLPaidAt": {
        "details": "D1DCV2 Token Id -> Alias Name -> User -> Timestamp the user paid for the vanity urlVanity URL is valid only if nameOwnerUpdateAt <= vanityURLPaidAt"
      }
    },
    "version": 1
  },
  "userdoc": {
    "kind": "user",
    "methods": {},
    "version": 1
  },
  "storageLayout": {
    "storage": [
      {
        "astId": 138,
        "contract": "contracts/ShortsReelsVideos.sol:ShortsReelsVideos",
        "label": "_initialized",
        "offset": 0,
        "slot": "0",
        "type": "t_uint8"
      },
      {
        "astId": 141,
        "contract": "contracts/ShortsReelsVideos.sol:ShortsReelsVideos",
        "label": "_initializing",
        "offset": 1,
        "slot": "0",
        "type": "t_bool"
      },
      {
        "astId": 825,
        "contract": "contracts/ShortsReelsVideos.sol:ShortsReelsVideos",
        "label": "__gap",
        "offset": 0,
        "slot": "1",
        "type": "t_array(t_uint256)50_storage"
      },
      {
        "astId": 10,
        "contract": "contracts/ShortsReelsVideos.sol:ShortsReelsVideos",
        "label": "_owner",
        "offset": 0,
        "slot": "51",
        "type": "t_address"
      },
      {
        "astId": 130,
        "contract": "contracts/ShortsReelsVideos.sol:ShortsReelsVideos",
        "label": "__gap",
        "offset": 0,
        "slot": "52",
        "type": "t_array(t_uint256)49_storage"
      },
      {
        "astId": 321,
        "contract": "contracts/ShortsReelsVideos.sol:ShortsReelsVideos",
        "label": "_paused",
        "offset": 0,
        "slot": "101",
        "type": "t_bool"
      },
      {
        "astId": 426,
        "contract": "contracts/ShortsReelsVideos.sol:ShortsReelsVideos",
        "label": "__gap",
        "offset": 0,
        "slot": "102",
        "type": "t_array(t_uint256)49_storage"
      },
      {
        "astId": 441,
        "contract": "contracts/ShortsReelsVideos.sol:ShortsReelsVideos",
        "label": "_status",
        "offset": 0,
        "slot": "151",
        "type": "t_uint256"
      },
      {
        "astId": 499,
        "contract": "contracts/ShortsReelsVideos.sol:ShortsReelsVideos",
        "label": "__gap",
        "offset": 0,
        "slot": "152",
        "type": "t_array(t_uint256)49_storage"
      },
      {
        "astId": 842,
        "contract": "contracts/ShortsReelsVideos.sol:ShortsReelsVideos",
        "label": "vanityURLAddress",
        "offset": 0,
        "slot": "201",
        "type": "t_contract(IVanityURL)1354"
      },
      {
        "astId": 851,
        "contract": "contracts/ShortsReelsVideos.sol:ShortsReelsVideos",
        "label": "vanityURLPaidAt",
        "offset": 0,
        "slot": "202",
        "type": "t_mapping(t_bytes32,t_mapping(t_string_memory_ptr,t_mapping(t_address,t_uint256)))"
      },
      {
        "astId": 854,
        "contract": "contracts/ShortsReelsVideos.sol:ShortsReelsVideos",
        "label": "maintainer",
        "offset": 0,
        "slot": "203",
        "type": "t_address"
      },
      {
        "astId": 861,
        "contract": "contracts/ShortsReelsVideos.sol:ShortsReelsVideos",
        "label": "ownerRevDisPercent",
        "offset": 0,
        "slot": "204",
        "type": "t_uint256"
      }
    ],
    "types": {
      "t_address": {
        "encoding": "inplace",
        "label": "address",
        "numberOfBytes": "20"
      },
      "t_array(t_uint256)49_storage": {
        "base": "t_uint256",
        "encoding": "inplace",
        "label": "uint256[49]",
        "numberOfBytes": "1568"
      },
      "t_array(t_uint256)50_storage": {
        "base": "t_uint256",
        "encoding": "inplace",
        "label": "uint256[50]",
        "numberOfBytes": "1600"
      },
      "t_bool": {
        "encoding": "inplace",
        "label": "bool",
        "numberOfBytes": "1"
      },
      "t_bytes32": {
        "encoding": "inplace",
        "label": "bytes32",
        "numberOfBytes": "32"
      },
      "t_contract(IVanityURL)1354": {
        "encoding": "inplace",
        "label": "contract IVanityURL",
        "numberOfBytes": "20"
      },
      "t_mapping(t_address,t_uint256)": {
        "encoding": "mapping",
        "key": "t_address",
        "label": "mapping(address => uint256)",
        "numberOfBytes": "32",
        "value": "t_uint256"
      },
      "t_mapping(t_bytes32,t_mapping(t_string_memory_ptr,t_mapping(t_address,t_uint256)))": {
        "encoding": "mapping",
        "key": "t_bytes32",
        "label": "mapping(bytes32 => mapping(string => mapping(address => uint256)))",
        "numberOfBytes": "32",
        "value": "t_mapping(t_string_memory_ptr,t_mapping(t_address,t_uint256))"
      },
      "t_mapping(t_string_memory_ptr,t_mapping(t_address,t_uint256))": {
        "encoding": "mapping",
        "key": "t_string_memory_ptr",
        "label": "mapping(string => mapping(address => uint256))",
        "numberOfBytes": "32",
        "value": "t_mapping(t_address,t_uint256)"
      },
      "t_string_memory_ptr": {
        "encoding": "bytes",
        "label": "string",
        "numberOfBytes": "32"
      },
      "t_uint256": {
        "encoding": "inplace",
        "label": "uint256",
        "numberOfBytes": "32"
      },
      "t_uint8": {
        "encoding": "inplace",
        "label": "uint8",
        "numberOfBytes": "1"
      }
    }
  }
}