{
  "address": "0x0621282486FAD8287d6f7Df6F045A33112664123",
  "abi": [
    {
      "anonymous": false,
      "inputs": [
        {
          "indexed": false,
          "internalType": "uint8",
          "name": "version",
          "type": "uint8"
        }
      ],
      "name": "Initialized",
      "type": "event"
    },
    {
      "anonymous": false,
      "inputs": [
        {
          "indexed": true,
          "internalType": "address",
          "name": "from",
          "type": "address"
        },
        {
          "indexed": true,
          "internalType": "address",
          "name": "to",
          "type": "address"
        }
      ],
      "name": "MaintainerChanged",
      "type": "event"
    },
    {
      "anonymous": false,
      "inputs": [
        {
          "indexed": true,
          "internalType": "address",
          "name": "previousOwner",
          "type": "address"
        },
        {
          "indexed": true,
          "internalType": "address",
          "name": "newOwner",
          "type": "address"
        }
      ],
      "name": "OwnershipTransferred",
      "type": "event"
    },
    {
      "anonymous": false,
      "inputs": [
        {
          "indexed": false,
          "internalType": "address",
          "name": "account",
          "type": "address"
        }
      ],
      "name": "Paused",
      "type": "event"
    },
    {
      "anonymous": false,
      "inputs": [
        {
          "indexed": false,
          "internalType": "address",
          "name": "account",
          "type": "address"
        }
      ],
      "name": "Unpaused",
      "type": "event"
    },
    {
      "anonymous": false,
      "inputs": [
        {
          "indexed": true,
          "internalType": "address",
          "name": "from",
          "type": "address"
        },
        {
          "indexed": true,
          "internalType": "address",
          "name": "to",
          "type": "address"
        }
      ],
      "name": "VanityURLAddressChanged",
      "type": "event"
    },
    {
      "anonymous": false,
      "inputs": [
        {
          "indexed": true,
          "internalType": "address",
          "name": "by",
          "type": "address"
        },
        {
          "indexed": true,
          "internalType": "string",
          "name": "name",
          "type": "string"
        },
        {
          "indexed": true,
          "internalType": "string",
          "name": "aliasNAme",
          "type": "string"
        },
        {
          "indexed": false,
          "internalType": "uint256",
          "name": "paidAt",
          "type": "uint256"
        }
      ],
      "name": "VideoVanityURLPaid",
      "type": "event"
    },
    {
      "inputs": [
        {
          "internalType": "address",
          "name": "_user",
          "type": "address"
        },
        {
          "internalType": "string",
          "name": "_name",
          "type": "string"
        },
        {
          "internalType": "string",
          "name": "_aliasName",
          "type": "string"
        }
      ],
      "name": "checkVideoVanityURLAccess",
      "outputs": [
        {
          "internalType": "bool",
          "name": "",
          "type": "bool"
        }
      ],
      "stateMutability": "view",
      "type": "function"
    },
    {
      "inputs": [
        {
          "internalType": "address",
          "name": "_vanityURLAddress",
          "type": "address"
        },
        {
          "internalType": "address",
          "name": "_maintainer",
          "type": "address"
        }
      ],
      "name": "initialize",
      "outputs": [],
      "stateMutability": "nonpayable",
      "type": "function"
    },
    {
      "inputs": [],
      "name": "maintainer",
      "outputs": [
        {
          "internalType": "address",
          "name": "",
          "type": "address"
        }
      ],
      "stateMutability": "view",
      "type": "function"
    },
    {
      "inputs": [],
      "name": "owner",
      "outputs": [
        {
          "internalType": "address",
          "name": "",
          "type": "address"
        }
      ],
      "stateMutability": "view",
      "type": "function"
    },
    {
      "inputs": [],
      "name": "paused",
      "outputs": [
        {
          "internalType": "bool",
          "name": "",
          "type": "bool"
        }
      ],
      "stateMutability": "view",
      "type": "function"
    },
    {
      "inputs": [
        {
          "internalType": "address",
          "name": "_user",
          "type": "address"
        },
        {
          "internalType": "string",
          "name": "_name",
          "type": "string"
        },
        {
          "internalType": "string",
          "name": "_aliasName",
          "type": "string"
        },
        {
          "internalType": "uint256",
          "name": "_paidAt",
          "type": "uint256"
        }
      ],
      "name": "payForVideoVanityURLAccess",
      "outputs": [],
      "stateMutability": "nonpayable",
      "type": "function"
    },
    {
      "inputs": [],
      "name": "renounceOwnership",
      "outputs": [],
      "stateMutability": "nonpayable",
      "type": "function"
    },
    {
      "inputs": [
        {
          "internalType": "address",
          "name": "newOwner",
          "type": "address"
        }
      ],
      "name": "transferOwnership",
      "outputs": [],
      "stateMutability": "nonpayable",
      "type": "function"
    },
    {
      "inputs": [
        {
          "internalType": "address",
          "name": "_maintainer",
          "type": "address"
        }
      ],
      "name": "updateMaintainer",
      "outputs": [],
      "stateMutability": "nonpayable",
      "type": "function"
    },
    {
      "inputs": [
        {
          "internalType": "address",
          "name": "_vanityURLAddress",
          "type": "address"
        }
      ],
      "name": "updateVanityURLAddress",
      "outputs": [],
      "stateMutability": "nonpayable",
      "type": "function"
    },
    {
      "inputs": [],
      "name": "vanityURLAddress",
      "outputs": [
        {
          "internalType": "contract IVanityURL",
          "name": "",
          "type": "address"
        }
      ],
      "stateMutability": "view",
      "type": "function"
    },
    {
      "inputs": [
        {
          "internalType": "bytes32",
          "name": "",
          "type": "bytes32"
        },
        {
          "internalType": "string",
          "name": "",
          "type": "string"
        },
        {
          "internalType": "address",
          "name": "",
          "type": "address"
        }
      ],
      "name": "videoVanityURLPaidAt",
      "outputs": [
        {
          "internalType": "uint256",
          "name": "",
          "type": "uint256"
        }
      ],
      "stateMutability": "view",
      "type": "function"
    }
  ],
  "transactionHash": "0x593b6b5089812a19bca96a62e72f7a51e75a65794c7b2d2b539d93e72d6e05cd",
  "args": [],
  "numDeployments": 1,
  "solcInputHash": "68cf5fdcd13168cee8fce0065c6ab998",
  "bytecode": "0x608060405234801561001057600080fd5b50610c0d806100206000396000f3fe608060405234801561001057600080fd5b50600436106100b45760003560e01c80638da5cb5b116100715780638da5cb5b1461016c5780639850d32b14610191578063bfe4db0d146101a4578063c6e628e3146101b7578063d770430c146101ca578063f2fde38b146101dd57600080fd5b806316c59762146100b9578063485cc955146100ce57806358c43343146100e15780635c975abb146101095780636955856714610114578063715018a614610164575b600080fd5b6100cc6100c73660046109a8565b6101f0565b005b6100cc6100dc366004610a24565b6103ac565b6100f46100ef366004610a57565b6104ff565b60405190151581526020015b60405180910390f35b60655460ff166100f4565b610156610122366004610acb565b60ca602090815260009384526040808520845180860184018051928152908401958401959095209452929052825290205481565b604051908152602001610100565b6100cc6105ca565b6033546001600160a01b03165b6040516001600160a01b039091168152602001610100565b60cb54610179906001600160a01b031681565b60c954610179906001600160a01b031681565b6100cc6101c5366004610b22565b6105de565b6100cc6101d8366004610b22565b610642565b6100cc6101eb366004610b22565b6106a6565b60cb546001600160a01b0316331461024f5760405162461bcd60e51b815260206004820152601a60248201527f56616e69747955524c3a206f6e6c79206d61696e7461696e657200000000000060448201526064015b60405180910390fd5b825160208401206102618585856104ff565b156102ae5760405162461bcd60e51b815260206004820152601760248201527f56616e69747955524c3a20616c726561647920706169640000000000000000006044820152606401610246565b428211156102fe5760405162461bcd60e51b815260206004820152601760248201527f56616e69747955524c3a20696e76616c69642074696d650000000000000000006044820152606401610246565b8160ca6000838152602001908152602001600020846040516103209190610b44565b9081526040805191829003602090810183206001600160a01b038a16600090815291522091909155610353908490610b44565b6040518091039020846040516103699190610b44565b6040519081900381208482529033907fad58ceda11229caa10d4a448923b269386018a333a3cca4fcdf7872c018926a79060200160405180910390a45050505050565b600054610100900460ff16158080156103cc5750600054600160ff909116105b806103e65750303b1580156103e6575060005460ff166001145b6104495760405162461bcd60e51b815260206004820152602e60248201527f496e697469616c697a61626c653a20636f6e747261637420697320616c72656160448201526d191e481a5b9a5d1a585b1a5e995960921b6064820152608401610246565b6000805460ff19166001179055801561046c576000805461ff0019166101001790555b61047461071f565b61047c61074e565b61048461077d565b60c980546001600160a01b038086166001600160a01b03199283161790925560cb80549285169290911691909117905580156104fa576000805461ff0019169055604051600181527f7f26b83ff96e1f2b6a682f133852f6798a09c465da95921460cefb38474024989060200160405180910390a15b505050565b8151602080840191909120600081815260ca90925260408083209051610526908590610b44565b90815260408051602092819003830181206001600160a01b03898116600090815291909452919091205460c95463f1558de760e01b8352600483018590529092169063f1558de790602401602060405180830381865afa15801561058e573d6000803e3d6000fd5b505050506040513d601f19601f820116820180604052508101906105b29190610b73565b106105be5760006105c1565b60015b95945050505050565b6105d26107ac565b6105dc6000610806565b565b6105e66107ac565b60cb546040516001600160a01b038084169216907f408b3d3ce7697644a506287f6aad98db9fc5a94d99e09bdda27161f80ebd789790600090a360cb80546001600160a01b0319166001600160a01b0392909216919091179055565b61064a6107ac565b60c9546040516001600160a01b038084169216907fc5ca9d91a57bd7cc794c44cd3332b122d8d159eef6310e39336324706815190b90600090a360c980546001600160a01b0319166001600160a01b0392909216919091179055565b6106ae6107ac565b6001600160a01b0381166107135760405162461bcd60e51b815260206004820152602660248201527f4f776e61626c653a206e6577206f776e657220697320746865207a65726f206160448201526564647265737360d01b6064820152608401610246565b61071c81610806565b50565b600054610100900460ff166107465760405162461bcd60e51b815260040161024690610b8c565b6105dc610858565b600054610100900460ff166107755760405162461bcd60e51b815260040161024690610b8c565b6105dc61088b565b600054610100900460ff166107a45760405162461bcd60e51b815260040161024690610b8c565b6105dc6108bb565b6033546001600160a01b031633146105dc5760405162461bcd60e51b815260206004820181905260248201527f4f776e61626c653a2063616c6c6572206973206e6f7420746865206f776e65726044820152606401610246565b603380546001600160a01b038381166001600160a01b0319831681179093556040519116919082907f8be0079c531659141344cd1fd0a4f28419497f9722a3daafe3b4186f6b6457e090600090a35050565b600054610100900460ff1661087f5760405162461bcd60e51b815260040161024690610b8c565b6065805460ff19169055565b600054610100900460ff166108b25760405162461bcd60e51b815260040161024690610b8c565b6105dc33610806565b600054610100900460ff166108e25760405162461bcd60e51b815260040161024690610b8c565b6001609755565b80356001600160a01b038116811461090057600080fd5b919050565b634e487b7160e01b600052604160045260246000fd5b600082601f83011261092c57600080fd5b813567ffffffffffffffff8082111561094757610947610905565b604051601f8301601f19908116603f0116810190828211818310171561096f5761096f610905565b8160405283815286602085880101111561098857600080fd5b836020870160208301376000602085830101528094505050505092915050565b600080600080608085870312156109be57600080fd5b6109c7856108e9565b9350602085013567ffffffffffffffff808211156109e457600080fd5b6109f08883890161091b565b94506040870135915080821115610a0657600080fd5b50610a138782880161091b565b949793965093946060013593505050565b60008060408385031215610a3757600080fd5b610a40836108e9565b9150610a4e602084016108e9565b90509250929050565b600080600060608486031215610a6c57600080fd5b610a75846108e9565b9250602084013567ffffffffffffffff80821115610a9257600080fd5b610a9e8783880161091b565b93506040860135915080821115610ab457600080fd5b50610ac18682870161091b565b9150509250925092565b600080600060608486031215610ae057600080fd5b83359250602084013567ffffffffffffffff811115610afe57600080fd5b610b0a8682870161091b565b925050610b19604085016108e9565b90509250925092565b600060208284031215610b3457600080fd5b610b3d826108e9565b9392505050565b6000825160005b81811015610b655760208186018101518583015201610b4b565b506000920191825250919050565b600060208284031215610b8557600080fd5b5051919050565b6020808252602b908201527f496e697469616c697a61626c653a20636f6e7472616374206973206e6f74206960408201526a6e697469616c697a696e6760a81b60608201526080019056fea264697066735822122076fb4b5f795a515f3f03c7252fe1d7c0128cc64dff922483eb48445a84c7831264736f6c63430008110033",
  "devdoc": {
    "kind": "dev",
    "methods": {
      "owner()": {
        "details": "Returns the address of the current owner."
      },
      "paused()": {
        "details": "Returns true if the contract is paused, and false otherwise."
      },
      "renounceOwnership()": {
        "details": "Leaves the contract without owner. It will not be possible to call `onlyOwner` functions anymore. Can only be called by the current owner. NOTE: Renouncing ownership will leave the contract without an owner, thereby removing any functionality that is only available to the owner."
      },
      "transferOwnership(address)": {
        "details": "Transfers ownership of the contract to a new account (`newOwner`). Can only be called by the current owner."
      }
    },
    "stateVariables": {
      "maintainer": {
        "details": "Maintainer address"
      },
      "vanityURLAddress": {
        "details": "VanityURL contract address"
      },
      "videoVanityURLPaidAt": {
        "details": "D1DCV2 Token Id -> Alias Name -> User -> Timestamp the user paid for the video urlVideo vanity URL is valid only if nameOwnerUpdateAt <= videoVanityURLPaidAt"
      }
    },
    "version": 1
  },
  "userdoc": {
    "kind": "user",
    "methods": {},
    "version": 1
  },
  "storageLayout": {
    "storage": [
      {
        "astId": 138,
        "contract": "contracts/ShortsReelsVideos.sol:ShortsReelsVideos",
        "label": "_initialized",
        "offset": 0,
        "slot": "0",
        "type": "t_uint8"
      },
      {
        "astId": 141,
        "contract": "contracts/ShortsReelsVideos.sol:ShortsReelsVideos",
        "label": "_initializing",
        "offset": 1,
        "slot": "0",
        "type": "t_bool"
      },
      {
        "astId": 825,
        "contract": "contracts/ShortsReelsVideos.sol:ShortsReelsVideos",
        "label": "__gap",
        "offset": 0,
        "slot": "1",
        "type": "t_array(t_uint256)50_storage"
      },
      {
        "astId": 10,
        "contract": "contracts/ShortsReelsVideos.sol:ShortsReelsVideos",
        "label": "_owner",
        "offset": 0,
        "slot": "51",
        "type": "t_address"
      },
      {
        "astId": 130,
        "contract": "contracts/ShortsReelsVideos.sol:ShortsReelsVideos",
        "label": "__gap",
        "offset": 0,
        "slot": "52",
        "type": "t_array(t_uint256)49_storage"
      },
      {
        "astId": 321,
        "contract": "contracts/ShortsReelsVideos.sol:ShortsReelsVideos",
        "label": "_paused",
        "offset": 0,
        "slot": "101",
        "type": "t_bool"
      },
      {
        "astId": 426,
        "contract": "contracts/ShortsReelsVideos.sol:ShortsReelsVideos",
        "label": "__gap",
        "offset": 0,
        "slot": "102",
        "type": "t_array(t_uint256)49_storage"
      },
      {
        "astId": 441,
        "contract": "contracts/ShortsReelsVideos.sol:ShortsReelsVideos",
        "label": "_status",
        "offset": 0,
        "slot": "151",
        "type": "t_uint256"
      },
      {
        "astId": 499,
        "contract": "contracts/ShortsReelsVideos.sol:ShortsReelsVideos",
        "label": "__gap",
        "offset": 0,
        "slot": "152",
        "type": "t_array(t_uint256)49_storage"
      },
      {
        "astId": 842,
        "contract": "contracts/ShortsReelsVideos.sol:ShortsReelsVideos",
        "label": "vanityURLAddress",
        "offset": 0,
        "slot": "201",
        "type": "t_contract(IVanityURL)1068"
      },
      {
        "astId": 851,
        "contract": "contracts/ShortsReelsVideos.sol:ShortsReelsVideos",
        "label": "videoVanityURLPaidAt",
        "offset": 0,
        "slot": "202",
        "type": "t_mapping(t_bytes32,t_mapping(t_string_memory_ptr,t_mapping(t_address,t_uint256)))"
      },
      {
        "astId": 854,
        "contract": "contracts/ShortsReelsVideos.sol:ShortsReelsVideos",
        "label": "maintainer",
        "offset": 0,
        "slot": "203",
        "type": "t_address"
      }
    ],
    "types": {
      "t_address": {
        "encoding": "inplace",
        "label": "address",
        "numberOfBytes": "20"
      },
      "t_array(t_uint256)49_storage": {
        "base": "t_uint256",
        "encoding": "inplace",
        "label": "uint256[49]",
        "numberOfBytes": "1568"
      },
      "t_array(t_uint256)50_storage": {
        "base": "t_uint256",
        "encoding": "inplace",
        "label": "uint256[50]",
        "numberOfBytes": "1600"
      },
      "t_bool": {
        "encoding": "inplace",
        "label": "bool",
        "numberOfBytes": "1"
      },
      "t_bytes32": {
        "encoding": "inplace",
        "label": "bytes32",
        "numberOfBytes": "32"
      },
      "t_contract(IVanityURL)1068": {
        "encoding": "inplace",
        "label": "contract IVanityURL",
        "numberOfBytes": "20"
      },
      "t_mapping(t_address,t_uint256)": {
        "encoding": "mapping",
        "key": "t_address",
        "label": "mapping(address => uint256)",
        "numberOfBytes": "32",
        "value": "t_uint256"
      },
      "t_mapping(t_bytes32,t_mapping(t_string_memory_ptr,t_mapping(t_address,t_uint256)))": {
        "encoding": "mapping",
        "key": "t_bytes32",
        "label": "mapping(bytes32 => mapping(string => mapping(address => uint256)))",
        "numberOfBytes": "32",
        "value": "t_mapping(t_string_memory_ptr,t_mapping(t_address,t_uint256))"
      },
      "t_mapping(t_string_memory_ptr,t_mapping(t_address,t_uint256))": {
        "encoding": "mapping",
        "key": "t_string_memory_ptr",
        "label": "mapping(string => mapping(address => uint256))",
        "numberOfBytes": "32",
        "value": "t_mapping(t_address,t_uint256)"
      },
      "t_string_memory_ptr": {
        "encoding": "bytes",
        "label": "string",
        "numberOfBytes": "32"
      },
      "t_uint256": {
        "encoding": "inplace",
        "label": "uint256",
        "numberOfBytes": "32"
      },
      "t_uint8": {
        "encoding": "inplace",
        "label": "uint8",
        "numberOfBytes": "1"
      }
    }
  }
}